:0E0ACB00436C6F636B3A0020203A20203A0003
:10089400120AA87BFF7A0A79CB7D017F01120A082C
:1008A4007BFF7A0A79D27D017F02120A08120A6656
:1008B400E51BFB7A00750C027D017F02120A49E5F3
:1008C4001CFB7A00750C027D047F02120A49E51AAA
:0F08D400FB7A00750C027D077F02120A4980D162
:03000B000208E305
:0408E300C0E0C0D0E1
:1008E700758CFC758A180519E51970020518C394EB
:1008F700E8E51894034027751800751900051AE5EF
:100907001A943C4019751A00051CE51C943C400ECE
:0E091700751C00051BE51B94184003751B00A2
:05092500D0D0D0E0324B
:100A9300EF1FAC0670011E4C600A7D027CEFDCFE8A
:040AA300DDFC80EC0A
:010AA700222C
:060ABC00C2A58F80D2A745
:080AC2007F027EEFDEFEDFFC87
:010ACA002209
:0A0AE500C2A6120ABCC2A7020AC290
:100A2B00CFCDCFCECCCE12083F7C007D0A12083F33
:040A3B00ED2430FF77
:0A0A3F00D2A6120ABCC2A7020AC226
:100A7D00AE07BE0104ED148006BE0209ED243F440D
:060A8D0080FF120AE522C1
:100AA8007F38120AE57F0C120AE57F06120AE57FF5
:040AB80001020AE548
:0A0AEF00AC03120A7DAF04020A3FB7
:060A08008B088A09890A2F
:100A0E00120A7DE4FDAB08AA09A90A8D827583003E
:0C0A1E00120800FF6006120A3F0D80E97C
:010A2A0022A9
:0C09D5007F0AEA24FFFDE434FFFC7E00F2
:0809E1008E0D8F0E8C0F8D109E
:1009E9007F017E00E4FBEBC39510E50F6480F8748A
:0E09F9008098500AAC0DAD0E12082D0B80E850
:010A070022CC
:040A49008A0A8B0B7F
:100A4D00120A7DAA0CEAD39400400D1209D5AC0A06
:080A5D00AD0B120A2B1A80ED0B
:010A6500226E
:10092A00120A7DC3EA64809480400B7F2B120A3F2F
:10093A008A168B17800E7F2D120A3FC3E49BF51788
:10094A00E49AF516AA15EAD39400400D1209D5AC1B
:09095A0016AD17120A2B1A80EDEC
:010963002271
:040964008A1F8B203B
:10096800120A7DAA21EAD3940040297F101209D7E0
:10097800AC1FAD20CFCDCFCECCCE12083FEF540F59
:10098800FEC3940AEE5004243080022437FF120A72
:040998003F1A80D1B1
:01099C002238
:04099D008A248B25F8
:1009A100120A7DAA26EAD394004028EA24FFFDE436
:1009B10034FFFC7F027E001209E1AC24AD25CFCDCE
:1009C100CFCECCCE12083FEF54012430FF120A3FA4
:0309D1001A80D2B7
:0109D4002200
:100A66005389F0438901758A18758CFCC28DD28C26
:070A7600D2A9D2AFC2B922E0
:03000000020AD918
:0C0AD900787FE4F6D8FD758126020894B1
:10080000BB010CE58229F582E5833AF583E02250AD
:1008100006E92582F8E622BBFE06E92582F8E222F7
:0D082000E58229F582E5833AF583E4932211
:10082D00EF8DF0A4A8F0CF8CF0A428CE8DF0A42EDF
:02083D00FE2299
:10083F00BC000BBE0029EF8DF084FFADF022E4CC9D
:10084F00F875F008EF2FFFEE33FEEC33FCEE9DEC66
:10085F00984005FCEE9DFE0FD5F0E9E4CEFD22EDAC
:10086F00F8F5F0EE8420D21CFEADF075F008EF2FF6
:10087F00FFED33FD4007985006D5F0F222C398FDE7
:05088F000FD5F0EA2284
:00000001FF
