:02085700AD07EB
:10085900E4FB74807E00A803088006CEA2E713CECD
:1008690013D8F8FFEDF582EF558224FF92B4D2B682
:0A087900C2B60BBB08DCD2B5C2B555
:010883002252
:10088400AA07AF05120857AF027480A807088002B0
:10089400C313D8FCF4F5807F017E001208A675808E
:0208A400FF2231
:10080000C2B6C2B57DAA7C007F071208847D3C7CFD
:1008100000E4FF1208847D427C007F011208847D81
:10082000A97C007F021208847D857C007F0312086A
:10083000847D857C007F041208847DA97C007F056F
:100840001208847D427C007F061208847D3C7C0077
:070850007F0712088480B647
:1008A600EF1FAC0670011E4C600A7D027CEFDCFE79
:0408B600DDFC80ECF9
:0108BA00221B
:030000000208BB38
:0C08BB00787FE4F6D8FD75810702080084
:00000001FF
