:100FFF00543A0054483A00544C3A004F563A48007D
:0A100F004F563A4C0020202020002C
:100B5900E4FF120EBD8F1A7F01120EBD8F15D3E56A
:100B69001A648094FD5016C3E51564809449400DBC
:100B7900D3E5156480F8E51A6480985006751A144F
:100B890075150F1210BC7BFF7A0F79FF7D017F016C
:100B9900120F667BFF7A1079027D017F02120F66C0
:100BA9007BFF7A1079067D097F02120F66E51AFB31
:100BB9003395E0FA750C037D047F02120DA6E51545
:100BC900FB3395E0FA750C037D0C7F02120DA6121A
:100BD90011448F1B1210F1120EED8F198E188D17FB
:100BE9008C16E4FFFEFDFCAB19AA18A917A816126A
:100BF90008A050167B2D7D037F0112112AAF19AE73
:100C090018AD17AC1612091980117B2B7D037F01D2
:100C190012112AAF19AE18AD17AC161209688F1C3C
:100C2900E51CFB7A00750C037D047F01120FC57B5F
:100C39002E7D077F0112112AE51C75F064A4FFAE11
:100C4900F0E4FCFD7B64FAF9F8120AB9750C027D2F
:100C5900087F01120FC5E51B7003020CFEB4010EDB
:100C6900051AD3E51A648094FD4003751A7DE51BC6
:100C7900B40211151AD3E5156480F8E51A64809851
:100C89005002051AE51BB403110515C3E51A648062
:100C9900F8E51564809840021515E51BB4040E1596
:100CA90015C3E5156480944950037515C9E51AFB08
:100CB9003395E0FA750C037D047F02120DA6E51544
:100CC900FB3395E0FA750C037D0C7F02120DA6E546
:100CD9001AFD3395E0FCE4FF120F427F057E0012F6
:100CE90010A7E515FD3395E0FC7F01120F427F0542
:100CF9007E001210A7AC1AEC120934AB19AA18A974
:100D090017A8161208A0600A40087BFF7A10790A12
:100D19008019AC15EC120934AB19AA18A917A81631
:100D29001208A050107BFF7A10790F7D0D7F0112F8
:100D39000F66020BD87BFF7A1079147D0D7F0112A3
:050D49000F66020BD84B
:03000B00020D4E95
:100D4E00C0E0C0F0C083C082C0D075D000C000C06B
:0D0D5E0001C002C003C004C005C006C007EC
:100D6B00758CFC758A180514E51470020513C39471
:100D7B0014E51394004009751300751400120E1935
:100D8B00D007D006D005D004D003D002D001D000BC
:0B0D9B00D0D0D082D083D0F0D0E03266
:1010A700EF1FAC0670011E4C600A7D027CEFDCFE70
:0410B700DDFC80ECF0
:0110BB002212
:0D10F1001210197FCC1210337F440210330F
:100EED001210197FCC1210337FBE121033120FE285
:100EFD008F08120FE2EFFEE508FFFDAC06EC1209BC
:0B0F0D002FE4FBFA7980784112080302
:010F180022B6
:09113400D2A0D2A1C2A0C2A122E6
:07113D00C2A0D2A1D2A02242
:020F1900AD0722
:100F1B00E4FB74807E00A803088006CEA2E713CE04
:100F2B0013D8F8FFEDF582EF558224FF92A0D2A1E2
:060F3B00C2A10BBB08DCA3
:010F4100228D
:100F8900E4FFD2A0FED2A130A00D7480A80608808B
:0D0F990002C313D8FC4207C2A10EBE08E837
:010FA6002228
:0A111600EF24FF92A0D2A1C2A12293
:0B10FE00D2A0D2A1A2A0E433FFC2A147
:0111090022C3
:0610E200C2A58F80D2A719
:0810E8007F027EEFDEFEDFFC5B
:0110F00022DD
:0A112000C2A61210E2C2A70210E8F6
:100FA700CFCDCFCECCCE120A287C007D0A120A28DC
:040FB700ED2430FFF6
:0A0FBB00D2A61210E2C2A70210E84D
:10107B00AE07BE0104ED148006BE0209ED243F4409
:06108B0080FF121120227B
:1010BC007F381211207F0C1211207F061211207F15
:0410CC0001021120EC
:0A112A00AC0312107BAF04020FBBF0
:060F66008B088A09890ACC
:100F6C0012107BE4FDAB08AA09A90A8D82758300D7
:0C0F7C001209E9FF6006120FBB0D80E9AE
:010F88002246
:0C0E8A007F0AEA24FFFDE434FFFC7E0038
:080E96008E0F8F108C118D12DC
:100E9E007F017E00E4FBEBC39512E5116480F874CC
:0E0EAE008098500AAC0FAD10120A160B80E8A7
:010EBC002213
:040FC5008A0A8B0BFE
:100FC90012107BAA0CEAD39400400D120E8AAC0AC7
:080FD900AD0B120FA71A80ED09
:010FE10022ED
:100DA60012107BC3EA64809480400B7F2B120FBB2A
:100DB6008A0D8B0E800E7F2D120FBBC3E49BF50EA2
:100DC600E49AF50DAA0CEAD39400400D120E8AACF3
:090DD6000DAD0E120FA71A80EDFD
:010DDF0022F1
:040DE0008A1F8B20BB
:100DE40012107BAA21EAD3940040297F10120E8CA2
:100DF400AC1FAD20CFCDCFCECCCE120A28EF540FEE
:100E0400FEC3940AEE5004243080022437FF120FEC
:040E1400BB1A80D1B4
:010E180022B7
:040E52008A248B253E
:100E560012107BAA26EAD394004028EA24FFFDE478
:100E660034FFFC7F027E00120E96AC24AD25CFCD5A
:100E7600CFCECCCE120A28EF54012430FF120FBB7E
:030E86001A80D2FD
:010E89002246
:10101900D2B7C2B77FF7DFFED2B77F20DFFEA2B714
:09102900E433FE7FF7DFFEAF06A1
:01103200229B
:1010D000C2B77E04DEFEEF24FF92B77E18DEFED29A
:0110E000B758
:0110E10022EC
:10104C00C2B77F02DFFED2B77F02DFFEA2B7E43366
:07105C00FE7F18DFFEAF0666
:01106300226A
:02103300AD0707
:10103500E4FC7401A804088002C333D8FC5DFF12E8
:0610450010D00CBC08EC09
:01104B002282
:100FE200E4FDFC12104CEF600D7401A804088002AD
:0C0FF200C333D8FC42050CBC08E9AF0575
:010FFE0022D0
:100F42008F088C098D0A1211347FA0120F1912100A
:100F5200FEAF08120F191210FEAF0A120F1912106B
:040F6200FE02113D3D
:020EBD008F089C
:100EBF001211347FA0120F191210FEAF08120F1962
:100ECF001210FE1211347FA1120F191210FE120F01
:0D0EDF00898F097F0112111612113DAF0914
:010EEC0022E3
:05114400AF29E4F529CC
:011149002283
:10109100E4FF20B1010F20B0027F0220B2027F03E2
:0510A10020B3027F04F2
:0110A6002227
:100E19008527281210918F27E528B40107E5277047
:100E290003752901E528B40207E52770037529022E
:100E3900E528B40307E5277003752903E528B404F9
:080E490007E527700375290479
:010E5100227E
:101064005389F0438901758A18758CFCC28DD28C22
:07107400D2A9D2AFC2B922DC
:100800000209DEEC5D046005E8590470030209D4B6
:1008100012099F580460F6EC4860F2EC7004FDFE8B
:10082000FF22C860DB2481C85009C39860025006CB
:100830000209DB9850CAF582E9294B4A7005AB8260
:100840000209CA75F0007C1A7880C3EF9BEE9AED1E
:1008500099400DC3EF9BFFEE9AFEED99FDE842F043
:10086000DC23ACF0D0E0FFD0E0FED0E0FDAB822096
:10087000E7101BEB60BAEC2CFCEF33FFEE33FEED20
:1008800033FD0209B6E803F830E705C0F075F00063
:10089000EF2FFFEE33FEED33FD40B830E7C280AA04
:1008A00074F8CC6480CCC86480C8F58204604FC3FF
:1008B000EB9FF5F0EA9E42F0E99D42F0E89C45F09E
:1008C000603C501DE5825FFFE582D313CB5BCBF428
:1008D0002B5582FB50280ABA002409B90020088051
:1008E0001DE5825BFBE582D313CF5FCFF4C3132FEB
:1008F0005582FF50090EBE00050DBD00010CC3EB73
:100900009FF5F0EA9E42F0E99D42F0E89C45F060D8
:0909100007CC4820E701B3EC22FA
:10091900ED33EC33600A047003BD8004ECB2E7FCEC
:0109290022AB
:10092A0075F020800E75F010800575F0087D007E48
:10093A00007F003392D530D503120B4BEC334010B5
:10094A00EF33FFEE33FEED33FDEC33FCD5F0ED2251
:0E095A00E5F0247EA2D513CC92E7CDCEFF228D
:10096800EDD2E7CD33EC3392D524814006E4FFFE87
:10097800FDFC22FCE4CFCECDCC24E0501174FF80E6
:10098800EDC3CC13CCCD13CDCE13CECF13CF047083
:07099800F030D5DE020B4B2D
:10099F00E9D2E7C933E833F892D5EDD2E7CD33EC9E
:0709AF0033FC5002B2D52217
:1009B600EC30E7100FBF000C0EBE00080DBD0004A2
:1009C6000BEB6014A2D5EB13FCED92E7FD2274FF4E
:1009D600FCFDFEFF22E480F8A2D574FF13FC7D80A7
:0309E600E480EFBB
:0300000002110AE0
:0C110A00787FE4F6D8FD758129020B59AE
:1009E900BB010CE58229F582E5833AF583E02250C3
:1009F90006E92582F8E622BBFE06E92582F8E2220D
:0D0A0900E58229F582E5833AF583E4932226
:100A1600EF8DF0A4A8F0CF8CF0A428CE8DF0A42EF4
:020A2600FE22AE
:100A2800BC000BBE0029EF8DF084FFADF022E4CCB2
:100A3800F875F008EF2FFFEE33FEEC33FCEE9DEC7B
:100A4800984005FCEE9DFE0FD5F0E9E4CEFD22EDC1
:100A5800F8F5F0EE8420D21CFEADF075F008EF2F0B
:100A6800FFED33FD4007985006D5F0F222C398FDFC
:050A78000FD5F0EA2299
:100A7D0075F008758200EF2FFFEE33FECD33CDCC30
:100A8D0033CCC58233C5829BED9AEC99E5829840B3
:100A9D000CF582EE9BFEED9AFDEC99FC0FD5F0D690
:100AAD00E4CEFBE4CDFAE4CCF9A88222B800C1B9BA
:100ABD000059BA002DEC8BF084CFCECDFCE5F0CBF8
:100ACD00F97818EF2FFFEE33FEED33FDEC33FCEB31
:100ADD0033FB10D703994004EB99FB0FD8E5E4F9EC
:100AED00FA227818EF2FFFEE33FEED33FDEC33FCD9
:100AFD00C933C910D7059BE99A4007EC9BFCE99ACD
:100B0D00F90FD8E0E4C9FAE4CCFB2275F010EF2F11
:100B1D00FFEE33FEED33FDCC33CCC833C810D70711
:100B2D009BEC9AE899400AED9BFDEC9AFCE899F84C
:0E0B3D000FD5F0DAE4CDFBE4CCFAE4C8F922DF
:0E0B4B00C3E49FFFE49EFEE49DFDE49CFC22BB
:00000001FF
