:100A9700120D11120D5212080012097EE518FB7A89
:100AA70000750C027D017F01120CC9E519FB7A0064
:100AB700750C027D047F01120CC9E51AFB7A0075DB
:100AC7000C027D077F01120CC9E51BFB7A00750C30
:100AD700027D017F02120CC9E51CFB7A00750C022E
:100AE7007D047F02120CC9E51DFB7A00750C027D9F
:080AF700077F02120CC980A167
:060D2500C2A58F80D2A7D9
:080D2B007F027EEFDEFEDFFC1B
:010D3300229D
:0A0D3400C2A6120D25C2A7020D2B66
:100CAB00CFCDCFCECCCE1209297C007D0A120929DB
:040CBB00ED2430FFF5
:0A0CBF00D2A6120D25C2A7020D2BCC
:100CE600AE07BE0104ED148006BE0209ED243F44A2
:060CF60080FF120D342204
:100D11007F38120D347F0C120D347F06120D347F93
:040D210001020D348A
:0A0D3E00AC03120CE6AF04020CBF78
:060C88008B298A2A892B4A
:100C8E00120CE6E4FDAB29AA2AA92B8D82758300EE
:0C0C9E001208EAFF6006120CBF0D80E98E
:010CAA002227
:0C0C55007F0AEA24FFFDE434FFFC7E006F
:080C61008E0D8F0E8C0F8D101B
:100C69007F017E00E4FBEBC39510E50F6480F87407
:0E0C79008098500AAC0DAD0E1209170B80E8E2
:010C8700224A
:040CC9008A0A8B0BFD
:100CCD00120CE6AA0CEAD39400400D120C55AC0A96
:080CDD00AD0B120CAB1A80ED07
:010CE50022EC
:100BAA00120CE6C3EA64809480400B7F2B120CBFC0
:100BBA008A168B17800E7F2D120CBFC3E49BF51784
:100BCA00E49AF516AA15EAD39400400D120C55AC16
:090BDA0016AD17120CAB1A80EDE8
:010BE30022EF
:040BE4008A218B22B5
:100BE800120CE6AA23EAD3940040297F10120C576E
:100BF800AC21AD22CFCDCFCECCCE120929EF540FE8
:100C0800FEC3940AEE5004243080022437FF120CED
:040C1800BF1A80D1AE
:010C1C0022B5
:040C1D008A268B2771
:100C2100120CE6AA28EAD394004028EA24FFFDE446
:100C310034FFFC7F027E00120C61AC26AD27CFCDC4
:100C4100CFCECCCE120929EF54012430FF120CBFB4
:030C51001A80D234
:010C5400227D
:090D48000718130B100C3B3706D1
:050D5200C2B5C2B6228B
:060AFF0025F0FDEC3EFCB9
:060B05008C088D09AB070E
:100B0B00D2B5E4FD74017E00A805088005C333CE81
:100B1B0033CED8F9FFEBF582EF558224FF92B4D296
:100B2B00B6C2B60DBD08DDE4FD74017E00A8050854
:100B3B008005C333CE33CED8F9FFE5085EFEE50959
:100B4B005F4E24FF92B4D2B6C2B60DBD08DBC2B560
:010B5B002277
:020B5C00AD07E3
:100B5E00E4F9430501D2B5FB74017E00A8030880B9
:100B6E0005C333CE33CED8F9FFEDF582EF5582248F
:100B7E00FF92B4C2B6D2B60BBB08DDE4FBD2B6C24E
:100B8E00B630B40D7401A803088002C333D8FC42FA
:0B0B9E00010BBB08E8C2B5C2B4AF01F8
:010BA9002229
:10080000E4FDFC7F8E120B05E51875F00A8475F087
:1008100010A4FFAEF0E51875F00A84EF7F8C120A81
:10082000FFE51975F00A8475F010A4FFAEF0E51924
:1008300075F00A847C00EF7F88120AFFE51A75F0D4
:100840000A8475F010A4FFAEF0E51A75F00A847CF6
:1008500000EF25F0FDEC3EFC7F86120B05E51B75D5
:10086000F00A8475F010A4FFAEF0E51B75F00A8461
:100870007C00EF25F0FDEC3EFC7F84120B05E51CAF
:1008800075F00A8475F010A4FFAEF0E51C75F00A4F
:10089000847C00EF25F0FDEC3EFC7F82120B05E529
:1008A0001D75F00A8475F010A4FFAEF0E51D75F01B
:1008B0000A847C00EF25F0FDEC3EFC7F80120B05E6
:1008C000E51E75F00A8475F010A4FFAEF0E51E7504
:1008D000F00A847C00EF25F0FDEC3EFC7F8A120BD1
:0A08E000057D807C007F8E020B0571
:10097E007F8C120B5CEFC4540F75F00AA4FEEF547B
:10098E000F2EF5187F88120B5CEFC4540F75F00A0A
:10099E00A4FEEF540F2EF5197F86120B5CEFC45494
:1009AE000F75F00AA4FEEF540F2EF51A7F84120B6A
:1009BE005CEFC4540F75F00AA4FEEF540F2EF51B16
:1009CE007F82120B5CEFC4540F75F00AA4FEEF5435
:1009DE000F2EF51C7F80120B5CEFC4540F75F00ABE
:1009EE00A4FEEF540F2EF51D7F8A120B5CEFC4543C
:0C09FE000F75F00AA4FEEF540F2EF51E3A
:010A0A0022C9
:100CFC00EF1FAC0670011E4C600A7D027CEFDCFE1F
:040D0C00DDFC80EC9E
:010D100022C0
:03000000020A0BE6
:0C0A0B00787FE4F6D8FD75812B020A52BA
:1008EA00BB010CE58229F582E5833AF583E02250C3
:1008FA0006E92582F8E622BBFE06E92582F8E2220D
:0D090A00E58229F582E5833AF583E4932226
:10091700EF8DF0A4A8F0CF8CF0A428CE8DF0A42EF4
:02092700FE22AE
:10092900BC000BBE0029EF8DF084FFADF022E4CCB2
:10093900F875F008EF2FFFEE33FEEC33FCEE9DEC7B
:10094900984005FCEE9DFE0FD5F0E9E4CEFD22EDC1
:10095900F8F5F0EE8420D21CFEADF075F008EF2F0B
:10096900FFED33FD4007985006D5F0F222C398FDFC
:050979000FD5F0EA2299
:100A1700020A97E493A3F8E493A34003F68001F254
:100A270008DFF48029E493A3F85407240CC8C333E0
:100A3700C4540F4420C8834004F456800146F6DFAF
:100A4700E4800B0102040810204080900D48E47EEA
:100A5700019360BCA3FF543F30E509541FFEE493A4
:100A6700A360010ECF54C025E060A840B8E493A36B
:100A7700FAE493A3F8E493A3C8C582C8CAC583CA96
:100A8700F0A3C8C582C8CAC583CADFE9DEE780BE4E
:010D510000A1
:00000001FF
