:040AEF0041444A0034
:1009F300120AAC7BFF7A0A79EF7D017F01120A2389
:100A03007F9C1208948E228F23750C04AB23AA2299
:100A13007D017F02120A647F0A7E00120A9780E03A
:100A9700EF1FAC0670011E4C600A7D027CEFDCFE86
:040AA700DDFC80EC06
:010AAB002228
:060AC000C2A58F80D2A741
:080AC6007F027EEFDEFEDFFC83
:010ACE002205
:0A0ADB00C2A6120AC0C2A7020AC692
:100A4600CFCDCFCECCCE12083F7C007D0A12083F18
:040A5600ED2430FF5C
:0A0A5A00D2A6120AC0C2A7020AC603
:100A8100AE07BE0104ED148006BE0209ED243F4409
:060A910080FF120ADB22C7
:100AAC007F38120ADB7F0C120ADB7F06120ADB7F0F
:040ABC0001020ADB4E
:0A0AE500AC03120A81AF04020A5AA2
:060A23008B088A09890A14
:100A2900120A81E4FDAB08AA09A90A8D827583001F
:0C0A3900120800FF6006120A5A0D80E946
:010A4500228E
:0C09C0007F0AEA24FFFDE434FFFC7E0007
:0809CC008E0D8F0E8C0F8D10B3
:1009D4007F017E00E4FBEBC39510E50F6480F8749F
:0E09E4008098500AAC0DAD0E12082D0B80E865
:0109F20022E2
:040A64008A0A8B0B64
:100A6800120A81AA0CEAD39400400D1209C0AC0AFC
:080A7800AD0B120A461A80EDD5
:010A80002253
:10091500120A81C3EA64809480400B7F2B120A5A25
:100925008A168B17800E7F2D120A5AC3E49BF51782
:10093500E49AF516AA15EAD39400400D1209C0AC45
:0909450016AD17120A461A80EDE6
:01094E002286
:04094F008A1A8B1B5A
:10095300120A81AA1CEAD3940040297F101209C20B
:10096300AC1AAD1BCFCDCFCECCCE12083FEF540F78
:10097300FEC3940AEE5004243080022437FF120A87
:040983005A1A80D1AB
:01098700224D
:040988008A1F8B2017
:10098C00120A81AA21EAD394004028EA24FFFDE44C
:10099C0034FFFC7F027E001209CCAC1FAD20CFCD02
:1009AC00CFCECCCE12083FEF54012430FF120A5A9E
:0309BC001A80D2CC
:0109BF002215
:020894008F08CB
:10089600E4F50AF50BC2B6C2B5E5083392B4D2B692
:1008A6007F017E00120A97C2B6E4F50974807E00C5
:1008B600A809088006CEA2E713CE13D8F8FFEF5595
:1008C6000824FF92B4D2B67F017E00120A97C2B600
:1008D6000509E509C3940840D3E4F509D2B67F01BA
:1008E6007E00120A97C2B630B714E47E80A80908C3
:1008F6008005CEC313CE13D8F9420BEE420A050982
:0E090600E509C3941040D5D2B5E50AFF7E0086
:0109140022C0
:03000000020ACF22
:0C0ACF00787FE4F6D8FD7581230209F35E
:10080000BB010CE58229F582E5833AF583E02250AD
:1008100006E92582F8E622BBFE06E92582F8E222F7
:0D082000E58229F582E5833AF583E4932211
:10082D00EF8DF0A4A8F0CF8CF0A428CE8DF0A42EDF
:02083D00FE2299
:10083F00BC000BBE0029EF8DF084FFADF022E4CC9D
:10084F00F875F008EF2FFFEE33FEEC33FCEE9DEC66
:10085F00984005FCEE9DFE0FD5F0E9E4CEFD22EDAC
:10086F00F8F5F0EE8420D21CFEADF075F008EF2FF6
:10087F00FFED33FD4007985006D5F0F222C398FDE7
:05088F000FD5F0EA2284
:00000001FF
