:100B52005772697465204F4B0020202020202020EE
:100B6200200052656164204F4B002020202020206D
:020B7200200061
:10080000120BF8750C05AB23AA227D017F01120B98
:10081000B01209738F24E524B401150523E5237074
:10082000020522750C05FBAA227D017F01120BB087
:10083000E524B40216E523152370021522750C0574
:10084000AB23AA227D017F01120BB0E52464037063
:1008500040FCAD23FF120B0B7F057E00120BE3E57E
:1008600022FD7C007F01120B0B7F057E00120BE343
:100870007BFF7A0B79527D017F02120B2F7FE87E7E
:1008800003120BE37BFF7A0B795B7D017F02120B76
:100890002FE52464046003020811FF120AB27522D6
:1008A000008F237F01120AB2EFFEEE4222750C0583
:1008B000AB23AA227D017F01120BB07BFF7A0B795B
:1008C000647D017F02120B2F7FE87E03120BE37B16
:0F08D000FF7A0B796C7D017F02120B2F0208114A
:100BE300EF1FAC0670011E4C600A7D027CEFDCFE39
:040BF300DDFC80ECB9
:010BF70022DB
:10097300E4F50820B1137F14FE120BE330B1FD7FC1
:10098300147E00120BE375080120B0147F147E005F
:10099300120BE330B0FD7F147E00120BE3750802E7
:1009A30020B2147F147E00120BE330B2FD7F147E5D
:1009B30000120BE375080320B3147F147E00120B9F
:1009C300E330B3FD7F147E00120BE3750804AF0818
:0109D3002201
:060C0C00C2A58F80D2A7F3
:080C12007F027EEFDEFEDFFC35
:010C1A0022B7
:0A0C3300C2A6120C0CC2A7020C129C
:100B7400CFCDCFCECCCE12091E7C007D0A12091E29
:040B8400ED2430FF2D
:0A0B8800D2A6120C0CC2A7020C1238
:100BCD00AE07BE0104ED148006BE0209ED243F44BC
:060BDD0080FF120C332220
:100BF8007F38120C337F0C120C337F06120C337FB4
:040C080001020C33A6
:0A0C3D00AC03120BCDAF04020B88CC
:060B2F008B088A09890A07
:100B3500120BCDE4FDAB08AA09A90A8D82758300C5
:0C0B45001208DFFF6006120B880D80E92B
:010B51002281
:0C0A7F007F0AEA24FFFDE434FFFC7E0047
:080A8B008E0D8F0E8C0F8D10F3
:100A93007F017E00E4FBEBC39510E50F6480F874DF
:0E0AA3008098500AAC0DAD0E12090C0B80E8C5
:010AB1002222
:040BB0008A0A8B0B17
:100BB400120BCDAA0CEAD39400400D120A7FAC0AA2
:080BC400AD0B120B741A80ED59
:010BCC002206
:1009D400120BCDC3EA64809480400B7F2B120B88EA
:1009E4008A168B17800E7F2D120B88C3E49BF51794
:1009F400E49AF516AA15EAD39400400D120A7FACC6
:090A040016AD17120B741A80EDF7
:010A0D0022C6
:040A0E008A1A8B1B9A
:100A1200120BCDAA1CEAD3940040297F10120A813E
:100A2200AC1AAD1BCFCDCFCECCCE12091EEF540FD8
:100A3200FEC3940AEE5004243080022437FF120BC6
:040A4200881A80D1BD
:010A4600228D
:040A47008A1F8B2057
:100A4B00120BCDAA21EAD394004028EA24FFFDE43F
:100A5B0034FFFC7F027E00120A8BAC1FAD20CFCD82
:100A6B00CFCECCCE12091EEF54012430FF120B88CF
:030A7B001A80D20C
:010A7E002255
:100B0B008F088C098D0A120C517FA0120AE2120C6D
:100B1B001BAF08120AE2120C1BAF0A120AE2120CEC
:040B2B001B020C5A43
:020AB2008F08AB
:100AB400120C517FA0120AE2120C1BAF08120AE2B8
:100AC400120C1B120C517FA1120AE2120C1B120B06
:0D0AD400928F097F01120C47120C5AAF09D6
:010AE10022F2
:090C5100D2A0D2A1C2A0C2A122CE
:070C5A00C2A0D2A1D2A0222A
:020AE200AD075E
:100AE400E4FB74807E00A803088006CEA2E713CE40
:100AF40013D8F8FFEDF582EF558224FF92A0D2A11E
:060B0400C2A10BBB08DCDE
:010B0A0022C8
:100B9200E4FFD2A0FED2A130A00D7480A806088086
:0D0BA20002C313D8FC4207C2A10EBE08E832
:010BAF002223
:0A0C4700EF24FF92A0D2A1C2A12267
:0B0C1B00D2A0D2A1A2A0E433FFC2A12E
:010C260022AB
:03000000020C27C8
:0C0C2700787FE4F6D8FD758124020800F7
:1008DF00BB010CE58229F582E5833AF583E02250CE
:1008EF0006E92582F8E622BBFE06E92582F8E22218
:0D08FF00E58229F582E5833AF583E4932232
:10090C00EF8DF0A4A8F0CF8CF0A428CE8DF0A42EFF
:02091C00FE22B9
:10091E00BC000BBE0029EF8DF084FFADF022E4CCBD
:10092E00F875F008EF2FFFEE33FEEC33FCEE9DEC86
:10093E00984005FCEE9DFE0FD5F0E9E4CEFD22EDCC
:10094E00F8F5F0EE8420D21CFEADF075F008EF2F16
:10095E00FFED33FD4007985006D5F0F222C398FD07
:05096E000FD5F0EA22A4
:00000001FF
