:100D9300120C7AE518FB3395E0FA750C027D017F9E
:100DA30001121088E519FB3395E0FA750C027D04F6
:100DB3007F01121088E51AFB3395E0FA750C027D6A
:100DC300077F01121088E51BFB3395E0FA750C02CF
:100DD3007D017F02121088E51CFB3395E0FA750C48
:100DE300027D047F02121088E51DFB3395E0FA753E
:090DF3000C027D077F020210884A
:10080000E523B4020B0521E52175F0068485F0216E
:10081000E523640360030208DA74182521F806D37F
:10082000E518648094E34003E4F518D3E519648087
:10083000948C4003751901E51964016023E519647E
:1008400003601DE51964056017E51964076011E58B
:10085000196408600BE519640A6005E519B40C0B0E
:10086000D3E51A6480949F404D8048E51964046084
:1008700011E5196406600BE51964096005E519B412
:100880000B0BD3E51A6480949E402B8026E519B4A7
:100890000224E51875F004120BC4AFF0EF700BD30F
:1008A000E51A6480949D400E8009D3E51A64809413
:1008B0009C4003751A01D3E51B648094974003E4C0
:1008C000F51BD3E51C648094BB4003E4F51CD3E521
:1008D0001D648094BB4003E4F51DE52364046003BC
:1008E0000209D574182521F816C3E5186480948090
:1008F0005003751863C3E51964809481500375191A
:100900000CE51964016023E5196403601DE51964B1
:10091000056017E51964076011E5196408600BE5C7
:1009200019640A6005E519B40C17C3E51A648094CC
:10093000815003751A1FD3E51A6480949F4072801A
:100940006DE51964046011E5196406600BE519642E
:10095000096005E519B40B17C3E51A64809481504A
:1009600003751A1ED3E51A6480949E4044803FE5C7
:10097000196402703CE51875F004120BC4AFF0EF77
:100980007017C3E51A648094815003751A1DD3E56E
:100990001A6480949D401A8015C3E51A648094817E
:1009A0005003751A1CD3E51A6480949C4003751A91
:1009B00001C3E51B648094805003751B17C3E51CBD
:1009C000648094805003751C3BC3E51D6480948053
:1009D0005003751D3BE518FB3395E0FA750C027D5D
:1009E000017F01121088E519FB3395E0FA750C02BE
:1009F0007D047F01121088E51AFB3395E0FA750C2F
:100A0000027D077F01121088E51BFB3395E0FA7524
:100A10000C027D017F02121088E51CFB3395E0FA81
:100A2000750C027D047F02121088E51DFB3395E0F2
:100A3000FA750C027D077F02121088E521FB7A000F
:0A0A4000750C027D0A7F0202108887
:100F07001210E71211281210A5120A4A120DFC8FAF
:100F170023E523B40114E5227005752201800BE552
:100F270022B40106E4F522120A4AE52214600804F5
:0C0F370070DA120D9380D512080080D0F3
:03000B00021021BF
:04102100C0E0C0D09B
:10102500758CFC758A180520E5207002051FC39490
:0D10350088E51F94134006751F007520000C
:05104200D0D0D0E03227
:0610FB00C2A58F80D2A700
:081101007F027EEFDEFEDFFC41
:0111090022C3
:0A110A00C2A61210FBC2A7021101D9
:10106A00CFCDCFCECCCE120C257C007D0A120C251A
:04107A00ED2430FF32
:0A107E00D2A61210FBC2A702110156
:1010BC00AE07BE0104ED148006BE0209ED243F44C8
:0610CC0080FF12110A2250
:1010E7007F3812110A7F0C12110A7F0612110A7F2C
:0410F7000102110AD7
:0A111400AC031210BCAF0402107E01
:061047008B2E8A2F893078
:10104D001210BCE4FDAB2EAA2FA9308D8275830042
:0C105D00120BE6FF600612107E0D80E909
:011069002264
:0C0FEE007F0AEA24FFFDE434FFFC7E00D3
:080FFA008E0D8F0E8C0F8D107F
:101002007F017E00E4FBEBC39510E50F6480F8746A
:0E1012008098500AAC0DAD0E120C130B80E846
:0110200022AD
:041088008A0A8B0B3A
:10108C001210BCAA0CEAD39400400D120FEEAC0A5D
:08109C00AD0B12106A1A80ED81
:0110A4002229
:100F43001210BCC3EA64809480400B7F2B12107E86
:100F53008A168B17800E7F2D12107EC3E49BF51724
:100F6300E49AF516AA15EAD39400400D120FEEACDD
:090F730016AD1712106A1A80ED88
:010F7C002252
:040F7D008A268B270E
:100F81001210BCAA28EAD3940040297F10120FF056
:100F9100AC26AD27CFCDCFCECCCE120C25EF540F42
:100FA100FEC3940AEE5004243080022437FF12104D
:040FB1007E1A80D153
:010FB5002219
:040FB6008A2B8B2CCB
:100FBA001210BCAA2DEAD394004028EA24FFFDE4CB
:100FCA0034FFFC7F027E00120FFAAC2BAD2CCFCD82
:100FDA00CFCECCCE120C25EF54012430FF12107E56
:030FEA001A80D298
:010FED0022E1
:1010D200EF1FAC0670011E4C600A7D027CEFDCFE45
:0410E200DDFC80ECC5
:0110E60022E7
:09111E000718130B100C3B3706F7
:05112800C2B5C2B622B1
:050E5D002DFDEE3CFC40
:060E62008C088D09AB07AE
:100E6800D2B5E4FD74017E00A805088005C333CE21
:100E780033CED8F9FFEBF582EF558224FF92B4D236
:100E8800B6C2B60DBD08DDE4FD74017E00A80508F4
:100E98008005C333CE33CED8F9FFE5085EFEE509F9
:100EA8005F4E24FF92B4D2B6C2B60DBD08DBC2B500
:010EB8002217
:020EB900AD0783
:100EBB00E4F9430501D2B5FB74017E00A803088059
:100ECB0005C333CE33CED8F9FFEDF582EF5582242F
:100EDB00FF92B4C2B6D2B60BBB08DDE4FBD2B6C2EE
:100EEB00B630B40D7401A803088002C333D8FC429A
:0B0EFB00010BBB08E8C2B5C2B4AF0198
:010F060022C8
:100A4A00E4FDFC7F8E120E62E51875F00A120BC4E3
:100A5A00FF3395E0FEEFC4F8540FC868FFEEC454A4
:100A6A00F048FEE51875F00A120BC4ADF0ED3395A7
:100A7A00E0FCEF7F8C120E5DE51975F00A120BC4CB
:100A8A00FF3395E0FEEFC4F8540FC868FFEEC45474
:100A9A00F048FEE51975F00A120BC4ADF0ED339576
:100AAA00E0FCEF7F88120E5DE51A75F00A120BC49E
:100ABA00FF3395E0FEEFC4F8540FC868FFEEC45444
:100ACA00F048FEE51A75F00A120BC4ADF0ED339545
:100ADA00E0FCEF2DFDEE3CFC7F86120E62E51B75F5
:100AEA00F00A120BC4FF3395E0FEEFC4F8540FC8A6
:100AFA0068FFEEC454F048FEE51B75F00A120BC4F9
:100B0A00ADF0ED3395E0FCEF2DFDEE3CFC7F841259
:100B1A000E62E51C75F00A120BC4FF3395E0FEEF76
:100B2A00C4F8540FC868FFEEC454F048FEE51C75BB
:100B3A00F00A120BC4ADF0ED3395E0FCEF2DFDEE9B
:100B4A003CFC7F82120E62E51D75F00A120BC4FF8F
:100B5A003395E0FEEFC4F8540FC868FFEEC454F0B2
:100B6A0048FEE51D75F00A120BC4ADF0ED3395E0B1
:100B7A00FCEF2DFDEE3CFC7F80120E62E51E75F047
:100B8A000A120BC4FF3395E0FEEFC4F8540FC8688D
:100B9A00FFEEC454F048FEE51E75F00A120BC4AD10
:100BAA00F0ED3395E0FCEF2DFDEE3CFC7F8A120E52
:0A0BBA00627D807C007F8E020E62D7
:100C7A007F8C120EB9EFC4540F75F00AA4FEEF541C
:100C8A000F2EF5187F88120EB9EFC4540F75F00AAB
:100C9A00A4FEEF540F2EF5197F86120EB9EFC45435
:100CAA000F75F00AA4FEEF540F2EF51A7F84120E68
:100CBA00B9EFC4540F75F00AA4FEEF540F2EF51BBA
:100CCA007F82120EB9EFC4540F75F00AA4FEEF54D6
:100CDA000F2EF51C7F80120EB9EFC4540F75F00A5F
:100CEA00A4FEEF540F2EF51D7F8A120EB9EFC454DD
:0C0CFA000F75F00AA4FEEF540F2EF51E3B
:010D060022CA
:100DFC00E4F50820B1137F14FE1210D230B1FD7F40
:100E0C00147E001210D275080120B0147F147E00DD
:100E1C001210D230B0FD7F147E001210D275080271
:100E2C0020B2147F147E001210D230B2FD7F147EDB
:100E3C00001210D275080320B3147F147E00121018
:100E4C00D230B3FD7F147E001210D2750804AF08A7
:010E5C002273
:1010A5005389F0438901758A18758CFCC28DD28CE1
:0710B500D2A9D2AFC2B9229B
:03000000020D07E7
:0C0D0700787FE4F6D8FD758130020D4EB7
:100BC400C2D530F707B2D563F0FF05F030E70CB2B9
:100BD400D5F4048463F0FF05F080018430D502F479
:020BE4000422E9
:100BE600BB010CE58229F582E5833AF583E02250C4
:100BF60006E92582F8E622BBFE06E92582F8E2220E
:0D0C0600E58229F582E5833AF583E4932227
:100C1300EF8DF0A4A8F0CF8CF0A428CE8DF0A42EF5
:020C2300FE22AF
:100C2500BC000BBE0029EF8DF084FFADF022E4CCB3
:100C3500F875F008EF2FFFEE33FEEC33FCEE9DEC7C
:100C4500984005FCEE9DFE0FD5F0E9E4CEFD22EDC2
:100C5500F8F5F0EE8420D21CFEADF075F008EF2F0C
:100C6500FFED33FD4007985006D5F0F222C398FDFD
:050C75000FD5F0EA229A
:100D1300020F07E493A3F8E493A34003F68001F2E0
:100D230008DFF48029E493A3F85407240CC8C333E1
:100D3300C4540F4420C8834004F456800146F6DFB0
:100D4300E4800B010204081020408090111EE47E11
:100D5300019360BCA3FF543F30E509541FFEE493A5
:100D6300A360010ECF54C025E060A840B8E493A36C
:100D7300FAE493A3F8E493A3C8C582C8CAC583CA97
:100D8300F0A3C8C582C8CAC583CADFE9DEE780BE4F
:0111270000C7
:00000001FF
