:0D0F350054656D70657261747572653A00E7
:100C5F00120F007BFF7A0F79357D017F01120E0F86
:100C6F00120F42120DE38F258E248D238C22E4FF69
:100C7F00FEFDFCAB25AA24A923A8221209A6501E0B
:100C8F007B2D7D017F02120F65AF25AE24AD23AC06
:100C9F0022120A1F8F258E248D238C2280097B2BF5
:100CAF007D017F02120F65AF25AE24AD23AC22125A
:100CBF000A6EAB07AA06750C037D027F02120E5057
:100CCF007B2E7D057F02120F657F007E407D1C7C91
:100CDF0046AB25AA24A923A822120800120A6EE403
:100CEF007B107A27F9F8120BBF750C047D067F0273
:060CFF00120E50020C6F02
:100EEB00EF1FAC0670011E4C600A7D027CEFDCFE2E
:040EFB00DDFC80ECAE
:010EFF0022D0
:060F2600C2A58F80D2A7D6
:080F2C007F027EEFDEFEDFFC18
:010F3400229A
:0A0F5B00C2A6120F26C2A7020F2C37
:100E3200CFCDCFCECCCE120B2E7C007D0A120B2E44
:040E4200ED2430FF6C
:0A0E4600D2A6120F26C2A7020F2C3D
:100ED500AE07BE0104ED148006BE0209ED243F44B1
:060EE50080FF120F5B22EA
:100F00007F38120F5B7F0C120F5B7F06120F5B7F27
:040F100001020F5B70
:0A0F6500AC03120ED5AF04020E46D5
:060E0F008B088A09890A24
:100E1500120ED5E4FDAB08AA09A90A8D82758300D7
:0C0E2500120AEFFF6006120E460D80E975
:010E3100229E
:0C0DB0007F0AEA24FFFDE434FFFC7E0013
:080DBC008E0D8F0E8C0F8D10BF
:100DC4007F017E00E4FBEBC39510E50F6480F874AB
:0E0DD4008098500AAC0DAD0E120B1C0B80E87F
:010DE20022EE
:040E50008A0A8B0B74
:100E5400120ED5AA0CEAD39400400D120DB0AC0AC0
:080E6400AD0B120E321A80EDF5
:010E6C002263
:100D0500120ED5C3EA64809480400B7F2B120E46E9
:100D15008A168B17800E7F2D120E46C3E49BF5179E
:100D2500E49AF516AA15EAD39400400D120DB0AC5D
:090D350016AD17120E321A80ED02
:010D3E002292
:040D3F008A1A8B1B66
:100D4300120ED5AA1CEAD3940040297F10120DB2CB
:100D5300AC1AAD1BCFCDCFCECCCE120B2EEF540F92
:100D6300FEC3940AEE5004243080022437FF120E8F
:040D7300461A80D1CB
:010D77002259
:040D78008A1F8B2023
:100D7C00120ED5AA21EAD394004028EA24FFFDE400
:100D8C0034FFFC7F027E00120DBCAC1FAD20CFCD1A
:100D9C00CFCECCCE120B2EEF54012430FF120E46C8
:030DAC001A80D2D8
:010DAF002221
:0D0F4200120E8A7FCC120EA47F44020EA472
:100DE300120E8A7FCC120EA47FBE120EA4120E6DB9
:100DF3008F08120E6DEFFEE508FFFDAC06EC120A3C
:0B0E030035E4FBFA7980784112090900
:010E0E0022C1
:100E8A00D2B7C2B77FF7DFFED2B77F20DFFEA2B7A5
:090E9A00E433FE7FF7DFFEAF0632
:010EA300222C
:100F1400C2B77E04DEFEEF24FF92B77E18DEFED257
:010F2400B715
:010F250022A9
:100EBD00C2B77F02DFFED2B77F02DFFEA2B7E433F7
:070ECD00FE7F18DFFEAF06F7
:010ED40022FB
:020EA400AD0798
:100EA600E4FC7401A804088002C333D8FC5DFF1279
:060EB6000F140CBC08EC57
:010EBC002213
:100E6D00E4FDFC120EBDEF600D7401A804088002B4
:0C0E7D00C333D8FC42050CBC08E9AF05EB
:010E89002246
:10080000EC4D6011E8497017ED33EC3304600DE4F2
:10081000FCFFFEFD22E933E8330470F8020ADA1225
:100820000AA558046009E4CC248150062850090226
:100830000AE4284003020AE1C0E0EB4A7044B980B0
:1008400006D0E0FB020AD0EF4E701CBD8008EBFF23
:10085000EAFEE9FD80EBE98DF0A4FEE5F00208E98F
:10086000E9CDF9EAFEEBFFEF89F0A4FCE5F0CE89D3
:10087000F0A42EFFE435F0CD89F0A42DFEE435F090
:100880008067EF4E7005BD80D780C3EF8BF0A4ACBE
:10089000F0EE8BF0A42CFCE435F0F8EF8AF0A42CF9
:1008A000E5F038FCE433CB8DF0A42CFCE5F03BF80C
:1008B000EE8AF0A42CFCE5F038F8E433CF89F0A4FC
:1008C0002CFCE5F038CF3400CE89F0A42FFFE5F002
:1008D0003EFEE433C98DF0A42EFEE5F039CD8AF05A
:1008E000A42FFFE5F03EFEE43DFD33D0E0FB5007D2
:1008F0000BBB000F020AE4EC2CFCEF33FFEE33FEDF
:06090000ED33FD020ABC0C
:10090600020AE4EC5D046005E859047003020ADAA1
:10091600120AA5580460F6EC4860F2EC7004FDFE7D
:10092600FF22C860DB2481C85009C39860025006C4
:10093600020AE19850CAF582E9294B4A7005AB8252
:10094600020AD075F0007C1A7880C3EF9BEE9AED10
:1009560099400DC3EF9BFFEE9AFEED99FDE842F03C
:10096600DC23ACF0D0E0FFD0E0FED0E0FDAB82208F
:10097600E7101BEB60BAEC2CFCEF33FFEE33FEED19
:1009860033FD020ABCE803F830E705C0F075F00055
:10099600EF2FFFEE33FEED33FD40B830E7C280AAFD
:1009A60074F8CC6480CCC86480C8F58204604FC3F8
:1009B600EB9FF5F0EA9E42F0E99D42F0E89C45F097
:1009C600603C501DE5825FFFE582D313CB5BCBF421
:1009D6002B5582FB50280ABA002409B9002008804A
:1009E6001DE5825BFBE582D313CF5FCFF4C3132FE4
:1009F6005582FF50090EBE00050DBD00010CC3EB6C
:100A06009FF5F0EA9E42F0E99D42F0E89C45F060D1
:090A160007CC4820E701B3EC22F3
:100A1F00ED33EC33600A047003BD8004ECB2E7FCE5
:010A2F0022A4
:100A300075F020800E75F010800575F0087D007E41
:100A4000007F003392D530D503120C51EC334010A7
:100A5000EF33FFEE33FEED33FDEC33FCD5F0ED224A
:0E0A6000E5F0247EA2D513CC92E7CDCEFF2286
:100A6E00EDD2E7CD33EC3392D524814006E4FFFE80
:100A7E00FDFC22FCE4CFCECDCC24E0501174FF80DF
:100A8E00EDC3CC13CCCD13CDCE13CECF13CF04707C
:070A9E00F030D5DE020C511F
:100AA500E9D2E7C933E833F892D5EDD2E7CD33EC97
:070AB50033FC5002B2D52210
:100ABC00EC30E7100FBF000C0EBE00080DBD00049B
:100ACC000BEB6014A2D5EB13FCED92E7FD2274FF47
:100ADC00FCFDFEFF22E480F8A2D574FF13FC7D80A0
:030AEC00E480EFB4
:03000000020F4F9D
:0C0F4F00787FE4F6D8FD758125020C5F68
:100AEF00BB010CE58229F582E5833AF583E02250BC
:100AFF0006E92582F8E622BBFE06E92582F8E22206
:0D0B0F00E58229F582E5833AF583E493221F
:100B1C00EF8DF0A4A8F0CF8CF0A428CE8DF0A42EED
:020B2C00FE22A7
:100B2E00BC000BBE0029EF8DF084FFADF022E4CCAB
:100B3E00F875F008EF2FFFEE33FEEC33FCEE9DEC74
:100B4E00984005FCEE9DFE0FD5F0E9E4CEFD22EDBA
:100B5E00F8F5F0EE8420D21CFEADF075F008EF2F04
:100B6E00FFED33FD4007985006D5F0F222C398FDF5
:050B7E000FD5F0EA2292
:100B830075F008758200EF2FFFEE33FECD33CDCC29
:100B930033CCC58233C5829BED9AEC99E5829840AC
:100BA3000CF582EE9BFEED9AFDEC99FC0FD5F0D689
:100BB300E4CEFBE4CDFAE4CCF9A88222B800C1B9B3
:100BC3000059BA002DEC8BF084CFCECDFCE5F0CBF1
:100BD300F97818EF2FFFEE33FEED33FDEC33FCEB2A
:100BE30033FB10D703994004EB99FB0FD8E5E4F9E5
:100BF300FA227818EF2FFFEE33FEED33FDEC33FCD2
:100C0300C933C910D7059BE99A4007EC9BFCE99AC5
:100C1300F90FD8E0E4C9FAE4CCFB2275F010EF2F0A
:100C2300FFEE33FEED33FDCC33CCC833C810D7070A
:100C33009BEC9AE899400AED9BFDEC9AFCE899F845
:0E0C43000FD5F0DAE4CDFBE4CCFAE4C8F922D8
:0E0C5100C3E49FFFE49EFEE49DFDE49CFC22B4
:00000001FF
