:10095A001209C57512051208F98F13E5136401709F
:10096A00230515531503E5157002F512E515B401B3
:10097A0003751232E515B4020375124BE515B4037B
:10098A0003751264E515FD7C007F0112088C80C690
:03000B0002099A4D
:10099A00C0E0C0F0C0D0758CFF758A9C0514E514C0
:1009AA0075F0648485F014E514C395125004D2904E
:0B09BA008002C290D0D0D0F0D0E0321C
:1009DC00EF1FAC0670011E4C600A7D027CEFDCFE42
:0409EC00DDFC80ECC2
:0109F00022E4
:1008F900E4F51620B1137F14FE1209DC30B1FD7F37
:10090900147E001209DC75160120B0147F147E00D4
:100919001209DC30B0FD7F147E001209DC75160265
:1009290020B2147F147E001209DC30B2FD7F147EE0
:10093900001209DC75160320B3147F147E00120916
:10094900DC30B3FD7F147E001209DC751604AF1686
:01095900227B
:0C09F1000A083F065B4F666D7D077F6FB4
:10088C00EF14B4080050549008A175F003A4C5836C
:10089C0025F0C583730208B90208BD0208C102081D
:1008AC00C50208C90208D10208D90208E1D2A48005
:1008BC000ED2A48012D2A48016D2A4801AC2A4D2C2
:1008CC00A3D2A28016C2A4D2A3C2A2800EC2A4C27A
:1008DC00A3D2A28006C2A4C2A3C2A274082DF8E6B9
:0D08EC00F5807F017E001209DCE4F580221A
:1009C5005389F0438901758A9C758CFFC28DD28C41
:0709D500D2A9D2AFC2B92282
:03000000020800F3
:0C080000787FE4F6D8FD758116020847E9
:10080C0002095AE493A3F8E493A34003F68001F29F
:10081C0008DFF48029E493A3F85407240CC8C333ED
:10082C00C4540F4420C8834004F456800146F6DFBC
:10083C00E4800B01020408102040809009F1E47E52
:10084C00019360BCA3FF543F30E509541FFEE493B1
:10085C00A360010ECF54C025E060A840B8E493A378
:10086C00FAE493A3F8E493A3C8C582C8CAC583CAA3
:10087C00F0A3C8C582C8CAC583CADFE9DEE780BE5B
:0109FD0000F9
:00000001FF
