:10095000E4FDFC7F0112088C1208EF8F12E5126093
:10096000F7E4F513F514B2A57F017E0012098C059A
:1009700014E51470020513C39464E513940040E673
:0C098000E512FD7C007F0112088C80CC89
:10098C00EF1FAC0670011E4C600A7D027CEFDCFE92
:04099C00DDFC80EC12
:0109A0002234
:1008EF00E4F51520B1137F14FE12098C30B1FD7F92
:1008FF00147E0012098C75150120B0147F147E0030
:10090F0012098C30B0FD7F147E0012098C75150210
:10091F0020B2147F147E0012098C30B2FD7F147E3A
:10092F000012098C75150320B3147F147E00120971
:10093F008C30B3FD7F147E0012098C751504AF1532
:01094F002285
:0C09A1000A083F065B4F666D7D077F6F04
:10088C00EF14B4080050549008A175F003A4C5836C
:10089C0025F0C583730208B90208BD0208C102081D
:1008AC00C50208C90208D10208D90208E1D2A48005
:1008BC000ED2A48012D2A48016D2A4801AC2A4D2C2
:1008CC00A3D2A28016C2A4D2A3C2A2800EC2A4C27A
:1008DC00A3D2A28006C2A4C2A3C2A274082DF8E6B9
:0308EC00F5802272
:03000000020800F3
:0C080000787FE4F6D8FD758115020847EA
:10080C00020950E493A3F8E493A34003F68001F2A9
:10081C0008DFF48029E493A3F85407240CC8C333ED
:10082C00C4540F4420C8834004F456800146F6DFBC
:10083C00E4800B01020408102040809009A1E47EA2
:10084C00019360BCA3FF543F30E509541FFEE493B1
:10085C00A360010ECF54C025E060A840B8E493A378
:10086C00FAE493A3F8E493A3C8C582C8CAC583CAA3
:10087C00F0A3C8C582C8CAC583CADFE9DEE780BE5B
:0109AD000049
:00000001FF
