:100A800048656C6C6F0057656C636F6D6520746FA3
:080A9000204368696E6121003A
:10089400120AAD7B417D017F01120AF67BFF7A0AC1
:1008A40079807D037F01120A1F750C027B427A0056
:1008B4007D097F01120A42750C027BA87AFF7D0C28
:1008C4007F0112096F750C027BA57A007D017F02FE
:1008D400120912750C087BA57A007D047F021209A7
:1008E400B57BDF7D0D7F02120AF67B437D0E7F020E
:1008F400120AF67BFF7A0A79867D107F01120A1F9D
:0E0904007F18120AEC7FF47E01120A9880F22E
:060AD100C2A58F80D2A730
:080AD7007F027EEFDEFEDFFC72
:010ADF0022F4
:0A0AEC00C2A6120AD1C2A7020AD75F
:100A6200CFCDCFCECCCE12083F7C007D0A12083FFC
:040A7200ED2430FF40
:0A0A7600D2A6120AD1C2A7020AD7C5
:100AAD007F38120AEC7F0C120AEC7F06120AEC7FDB
:040ABD0001020AEC3C
:100AC100EDBF0103148002243F4480FF120AEC228F
:0A0AF600AC03120AC1AF04020A7635
:060A1F008B088A09890A18
:100A2500120AC1E4FDAB08AA09A90A8D82758300E3
:0C0A3500120800FF6006120A760D80E92E
:010A41002292
:0B09ED007F1024FFFDE434FFFC7E00BF
:0809F8008E0F8F108C118D127F
:100A00007F017E00E4FBEBC39512E5116480F8746E
:0E0A10008098500AAC0FAD1012082D0B80E834
:010A1E0022B5
:040A42008A0A8B0B86
:100A4600120AC1AA0CEAD394004010EA7F0A1209DE
:0B0A5600EFAC0AAD0B120A621A80EA36
:010A61002272
:10096F00120AC1C3EA64809480400B7F2B120A766F
:10097F008A0D8B0E800E7F2D120A76C3E49BF50E27
:10098F00E49AF50DAA0CEAD394004019EA24FFFD6E
:10099F00E434FFFC7F0A7E001209F8AC0DAD0E1295
:0509AF000A621A80E15C
:0109B4002220
:040912008A0A8B0BB7
:10091600120AC1AA0CEAD39400404DEA1209EDACC2
:100926000AAD0BCFCDCFCECCCE12083FEF540FC3BE
:10093600940AEA50171209EDAC0AAD0BCFCDCFCE13
:10094600CCCE12083FEF540F243080151209EDACBF
:100956000AAD0BCFCDCFCECCCE12083FEF540F242D
:0809660037FF120A761A80AD7A
:01096E002266
:0409B5008A0A8B0B14
:1009B900120AC1AA0CEAD394004028EA24FFFDE4F4
:1009C90034FFFC7F027E001209F8AC0AAD0BCFCDD3
:1009D900CFCECCCE12083FEF54012430FF120A7655
:0309E9001A80D29F
:0109EC0022E8
:100A9800EF1FAC0670011E4C600A7D027CEFDCFE85
:040AA800DDFC80EC05
:010AAC002227
:03000000020AE011
:0C0AE000787FE4F6D8FD758112020894BE
:10080000BB010CE58229F582E5833AF583E02250AD
:1008100006E92582F8E622BBFE06E92582F8E222F7
:0D082000E58229F582E5833AF583E4932211
:10082D00EF8DF0A4A8F0CF8CF0A428CE8DF0A42EDF
:02083D00FE2299
:10083F00BC000BBE0029EF8DF084FFADF022E4CC9D
:10084F00F875F008EF2FFFEE33FEEC33FCEE9DEC66
:10085F00984005FCEE9DFE0FD5F0E9E4CEFD22EDAC
:10086F00F8F5F0EE8420D21CFEADF075F008EF2FF6
:10087F00FFED33FD4007985006D5F0F222C398FDE7
:05088F000FD5F0EA2284
:00000001FF
