:1008CB002030080000000000000000FF080808FFAF
:1008DB00000E15151508007E0102007E0102000EA8
:1008EB0011110E007D000000000000000000000050
:0308FB00000000FA
:10088C00753901E4F53A120963E4F538E538253990
:10089C002408F8E6FD7C00AF3812092C0538E53841
:1008AC00C3940840E7053AE53AD3940A40DBE4F5F3
:0F08BC003A0539E539D3942840CFE4F53980CA9D
:10094E00EF1FAC0670011E4C600A7D027CEFDCFED0
:04095E00DDFC80EC50
:010962002272
:0208FF00AD0743
:10090100E4FB74807E00A803088006CEA2E713CE24
:1009110013D8F8FFEDF582EF558224FF92B4D2B6D9
:0A092100C2B60BBB08DCD2B5C2B5AC
:01092B0022A9
:05096300C2B6C2B5227E
:10092C00AA07AF051208FFAF027480A8070880025F
:10093C00C313D8FCF4F5807F017E0012094E75803C
:02094C00FF2288
:03000000020800F3
:0C080000787FE4F6D8FD75813A020847C5
:10080C0002088CE493A3F8E493A34003F68001F26E
:10081C0008DFF48029E493A3F85407240CC8C333ED
:10082C00C4540F4420C8834004F456800146F6DFBC
:10083C00E4800B01020408102040809008CBE47E79
:10084C00019360BCA3FF543F30E509541FFEE493B1
:10085C00A360010ECF54C025E060A840B8E493A378
:10086C00FAE493A3F8E493A3C8C582C8CAC583CAA3
:10087C00F0A3C8C582C8CAC583CADFE9DEE780BE5B
:0108FE0000F9
:00000001FF
